:100000000C948F000C94AC000C94AC000C94AC00DD
:100010000C94AC000C94AC000C94AC000C94170243
:100020000C94AC000C94AC000C94AC000C94AC00A0
:100030000C94AC000C94AC000C94AC000C94AC0090
:100040000C94CD010C94AC000C94AC000C94AC005E
:100050000C94AC000C94AC000C94AC000C94AC0070
:100060000C94AC000C94AC000C94AC000C94AC0060
:100070000C94AC000C94AC000C94AC000C94AC0050
:100080000C94AC000C94AC000C94AC000C94AC0040
:100090000C94AC000C94AC000C94AC000C94AC0030
:1000A0000C94AC000C94AC000C94AC000C94AC0020
:1000B0000C94AC00020A0D0E0900030200000405B6
:1000C0000800000000000000000000000000000028
:1000D00000000000250028002B002E00000000007A
:1000E000240027002A002D0004040404040404044E
:1000F00002020202020203030303030302020305D6
:1001000005050501020408102040800102040810C2
:10011000200102040810204080400102040811243C
:100120001FBECFEFD8E0DEBFCDBF11E0A0E0B1E051
:10013000E0EAF1E102C005900D92AA3AB107D9F7C1
:1001400021E0AAEAB1E001C01D92A03EB207E1F7AA
:100150000E94AB020C94CE080C94000090E0FC01CD
:10016000ED5FFE4F249188519F4FFC0184918823BD
:1001700099F090E0880F991FFC01E452FF4FA59180
:10018000B491FC01E053FF4F859194918FB7F8949F
:10019000EC91E22BEC938FBF0895282F30E0F9010A
:1001A000EB54FF4F9491F901ED5FFE4F849128517C
:1001B0003F4FF9012491222309F42EC09923D9F04D
:1001C00092509D30C0F4E92FF0E0E751FF4F0C94BE
:1001D0006D072F013301F6000D01FB00FB0011013B
:1001E00017011B012101FB0025012B0190918000CB
:1001F0009F7790938000E22FF0E0EE0FFF1FE05317
:10020000FF4FA591B4919FB7F894EC9161112EC066
:1002100080958E238C939FBF0895909180009F7D41
:10022000E8CF9091B0009F779093B000E4CF909189
:10023000B0009F7DF9CF909190009F7790939000B0
:10024000DACF909190009F7DF9CF9091A0009F7799
:100250009093A000D0CF9091A0009F7DF9CF94B54E
:100260009F7794BDC8CF94B59F7DFBCF8E2BD2CF07
:100270001F93CF93DF93182FEB010E94AE002097BE
:1002800039F460E0812FDF91CF911F910C94CD0064
:10029000CF3FD10511F461E0F5CFE12FF0E0EB5451
:1002A000FF4FE491E250ED3008F072C0F0E0E55A03
:1002B000FE4F0C946D076801700175017F01C80144
:1002C000C801890191019901A301C801AE01BD01D5
:1002D00084B5806884BDC7BDDF91CF911F9108951B
:1002E00084B5806284BDC8BDF7CF809180008068EE
:1002F00080938000D0938900C0938800EDCF8091D7
:100300008000806280938000D0938B00C0938A002D
:10031000E3CF8091B00080688093B000C093B300B9
:10032000DBCF8091B00080628093B000C093B400B6
:10033000D3CF80919000806880939000D0939900F3
:10034000C0939800C9CF5A9A8091900080628093A0
:100350009000D0939B00C0939A00BECF8091A000E4
:1003600080688093A0008091A0008F7B8093A00084
:10037000D093A900C093A800AFCF5A9A8091A00053
:1003800080628093A000D093AB00C093AA00A4CF5A
:10039000C038D1050CF07FCF74CF1F920F920FB6EB
:1003A0000F9211242F933F938F939F93AF93BF93FB
:1003B0008091DC019091DD01A091DE01B091DF011F
:1003C0003091DB0123E0230F2D3768F126E8230F5E
:1003D0000296A11DB11D2093DB018093DC01909357
:1003E000DD01A093DE01B093DF018091D7019091F0
:1003F000D801A091D901B091DA010196A11DB11DDA
:100400008093D7019093D801A093D901B093DA01DA
:10041000BF91AF919F918F913F912F910F900FBE00
:100420000F901F9018950196A11DB11DD4CF1F925A
:100430000F920FB60F9211242F933F934F935F9318
:100440006F937F938F939F93AF93BF93EF93FF939C
:100450008091B9019091BA01A091BB01B091BC010A
:10046000892B8A2B8B2BD1F19091AC01E091AD01BE
:10047000F091AE018081892780838091B9019091AC
:10048000BA01A091BB01B091BC01181619061A0659
:100490001B069CF48091B9019091BA01A091BB0117
:1004A000B091BC010197A109B1098093B901909362
:1004B000BA01A093BB01B093BC01FF91EF91BF9132
:1004C000AF919F918F917F916F915F914F913F91EC
:1004D0002F910F900FBE0F901F90189580910001E3
:1004E000E4EBF0E0E4919FEF90930001E230E1F063
:1004F00040F4EE2381F0E13089F060E00E94CD000D
:10050000DCCFE33011F1E430C1F7909172009D7FB0
:1005100090937200F2CF10926E00EFCF90916F0027
:100520009D7F90936F00E9CF909170009D7F909395
:10053000700091E09093B0009091B100987F94602A
:100540009093B1001092B300D8CF909171009D7F2D
:1005500090937100D2CFCF93DF93CDB7DEB72D97B5
:100560000FB6F894DEBF0FBECDBF789484B583601C
:1005700084BD85B5836085BD80916E008160809368
:100580006E0082E080938100809181008160809381
:100590008100809180008160809380008091B10013
:1005A00084608093B1008091B00081608093B0003E
:1005B0008091910083608093910080919000816090
:1005C000809390008091A10083608093A10080912E
:1005D000A00081608093A00087E880937A00109249
:1005E000C10085E00E94AE0082E10E94AE0081E180
:1005F0000E94AE0080E10E94AE008FE00E94AE003B
:100600008EE00E94AE0089E00E94AE008AE00E9467
:10061000AE0086E00E94AE008FB7F8944090DC01F7
:100620005090DD016090DE017090DF018FBF8091FE
:10063000D3019091D401A091D501B091D601B3011D
:10064000A201481B590B6A0B7B0B80910201909110
:100650000301A0910401B0910501481759076A07E9
:100660007B0708F42FC14092D3015092D4016092CD
:10067000D5017092D6012091C5013091C601220F9B
:10068000331F3E832D83F901E85CFE4F6081718149
:1006900084EF91E00E9418078B01CB01770FAA0B22
:1006A000BB0B89839A83AB83BC83BC01CD010E94C1
:1006B000D5072DEC3CEC4CEC5FE30E9439080E941E
:1006C0009D0769877A878B879C87AD81BE81AA5FEA
:1006D000BE4F2D903C9080910001833109F045C1BF
:1006E000E4EBF0E0F491FD87F7FDD1C083E10E94D7
:1006F000AE00FD85FF2321F02D85223009F014C2C4
:100700004101B12CA12C60E072E18AE790E0A501E3
:1007100091010E944E072D833E834F8358876901C4
:100720007A0131E0C31AD108E108F1084FEFC4168D
:10073000D104E104F10409F00CF4D3C160E472E4E3
:100740008FE090E0A50191010E944E0769017A01B6
:1007500081E0C81AD108E108F1089D85923009F0BE
:100760001CC382E0AFEFCA16D104E104F10409F022
:100770000CF46FC060E970ED83E090E0A501910199
:100780000E944E0769017A01B1E0CB1AD108E10855
:10079000F10883E0EFEFCE16D104E104F10409F093
:1007A0000CF457C068E478EE81E090E0A501910177
:1007B0000E944E0769017A01F1E0CF1AD108E108E1
:1007C000F10884E02FEFC216D104E104F10409F02E
:1007D0000CF43FC064E274EF80E090E0A501910169
:1007E0000E944E0769017A0181E0C81AD108E10828
:1007F000F10885E09FEFC916D104E104F10449F145
:1008000040F162E17AE780E090E0A50191010E9469
:100810004E0769017A01A1E0CA1AD108E108F1087E
:1008200086E0BFEFCB16D104E104F10491F088F02B
:10083000CD80DE80EF80F8849AE0F594E794D79439
:10084000C7949A95D1F721E0C21AD108E108F108BE
:1008500087E09091B100987F892B8093B1008981C6
:100860009A81AB81BC812FEF3FEFA901892B8A2BA5
:100870008B2B09F0BDC19D85923009F4F3C10CF0BA
:10088000EBC1992309F441C1913009F479C1E9859B
:10089000FA85CF01FF0FAA0BBB0B80930201909347
:1008A0000301A0930401B09305018091C5019091CB
:1008B000C60101968931910508F0F6C19093C601F1
:1008C0008093C5018091CF019091D001A091D10179
:1008D000B091D201A3019201281B390B4A0B5B0B8B
:1008E000DA01C9010697A105B10508F4ECC14092EF
:1008F000CF015092D0016092D1017092D20140910B
:10090000C7015091C8015A834983BA01772789E00A
:100910000E94380124E6A981BA812A9FC0012B9F39
:10092000900D11246FEF70E00E94180777278AE07E
:100930000E94380170E060E086E00E9438018091FA
:100940000101E981FA81E80FF11D87FDFA95FA832B
:10095000E9831E161F060CF4ACC11092C801109258
:10096000C701819580930101AEC18F3F09F08FCF00
:1009700083E180930001E4EBF0E0F491FD878F2F99
:10098000FF3F09F484CFF23009F469C058F4FF2323
:1009900071F1F13009F444C087FD79CF83E10E9401
:1009A000AE00AACE2D85233009F47CC02430A1F7F7
:1009B0001092A0001092A1008091A1008860809305
:1009C000A1008091A10081608093A100EBEFF0E095
:1009D0008491E82FF0E0EE0FFF1FE053FF4F859169
:1009E0009491E6E1F1E084918093AA017FCE14BC5A
:1009F00015BC84B5826084BD85B5816085BDEBEF93
:100A0000F0E08491E82FF0E0EE0FFF1FE053FF4F7E
:100A100085919491E6E1F1E084918093B00166CEF6
:100A200010928000109281008091810088608093F4
:100A3000810080918100816080938100EBEFF0E084
:100A40008491E82FF0E0EE0FFF1FE053FF4F8591F8
:100A50009491E6E1F1E084918093AF0147CE10924A
:100A6000B0001092B1008091B00082608093B0001D
:100A70008091B10081608093B100EBEFF0E0849150
:100A8000E82FF0E0EE0FFF1FE053FF4F85919491A8
:100A90009093AE018093AD01E6E1F1E08491809303
:100AA000AC0124CE109290001092910080919100A0
:100AB0008860809391008091910081608093910083
:100AC000EBEFF0E08491E82FF0E0EE0FFF1FE05332
:100AD000FF4F85919491E6E1F1E084918093AB0121
:100AE00005CE81E0ED85E111B4CE95B5987F892BD7
:100AF00085BD29813A814B815C81232B242B252BB9
:100B000009F076C02FEF3FEFA901C7BC2093C101C8
:100B10003093C2014093C3015093C40180916E0091
:100B2000826080936E00B3CEB12CA12C60E072E1A4
:100B30008AE790E0A50191010E944E0769017A01C0
:100B400081E0C81AD108E108F108C114D10491E08C
:100B5000E906F1043CF591E0BD85B130A1F5809145
:100B60008100887F892B8093810029813A814B8184
:100B70005C81232B242B252BD9F52FEF3FEFA901E7
:100B8000D0928900C09288002093BD013093BE01AD
:100B90004093BF015093C00180916F0082608093A9
:100BA0006F0075CE68E478EE81E090E0A5019101D8
:100BB0000E944E0769017A01A1E0CA1AD108E10832
:100BC000F10893E0C9CF3D853330F9F4809191006D
:100BD000887F892B8093910089819A81AB81BC8128
:100BE0002FEF3FEFA901892B8A2B8B2B09F44AC0E9
:100BF0009101220F331FD8010E94730728EE33E0C2
:100C000040E050E00E942C0736CEAD85A43009F0BC
:100C100026CE8091A100887F892B8093A100298115
:100C20003A814B815C81232B242B252B09F72FEF55
:100C30003FEFA901D092A900C092A8002093B10172
:100C40003093B2014093B3015093B401809172008C
:100C50008260809372001BCEAD85A33099F0A430E2
:100C600049F315CEC092B3002093B9013093BA0175
:100C70004093BB015093BC018091700082608093CF
:100C8000700005CED0929900C09298002093B501D3
:100C90003093B6014093B7015093B8018091710031
:100CA000826080937100F3CD1092C6011092C5014D
:100CB00009CE29813A812F3F31050CF067C030936E
:100CC000C8012093C7018091CB019091CC01A091E4
:100CD000CD01B091CE01A3019201281B390B4A0B23
:100CE0005B0BDA01C90184369105A105B10508F451
:100CF00045C04092CB015092CC016092CD017092E0
:100D0000CE014091C9015091CA015A834983FA0129
:100D1000EF73FF27E659FE4F1081612F60956170D8
:100D200085E00E94CD0001E011FB662760F9602795
:100D300082E10E94CD0012FB662760F9602781E105
:100D40000E94CD0013FB662760F980E10E94CD0070
:100D5000812F867161E009F460E08FE00E94CD0090
:100D6000127361E009F460E08EE00E94CD00898199
:100D70009A8101969093CA018093C90180E090E026
:100D8000892B09F449CC0E94000046CC4FEF50E07B
:100D90005093C8014093C701E4CD82E0BFEFCB166A
:100DA000D104E104F10409F00CF49CCE68E478EE7F
:100DB00081E090E0A50194010E944E0769017A014B
:100DC00091E0C91AD108E108F10883E0AFEFCA1633
:100DD000D104E104F10409F00CF484CE62E17AE775
:100DE00080E090E0A50194010E944E0769017A011C
:100DF000E1E0CE1AD108E108F10884E0FFEFCF1658
:100E0000D104E104F10409F008F46CCECD80DE8059
:100E1000EF80F8848AE0F594E794D794C7948A9594
:100E2000D1F731E0C31AD108E108F10885E05ACEC4
:100E300097FB072E16F4009407D077FD09D00E9487
:100E40007A0707FC05D03EF4909581959F4F089551
:100E5000709561957F4F0895A1E21A2EAA1BBB1BC6
:100E6000FD010DC0AA1FBB1FEE1FFF1FA217B30776
:100E7000E407F50720F0A21BB30BE40BF50B661F8C
:100E8000771F881F991F1A9469F760957095809550
:100E900090959B01AC01BD01CF010895052E97FBF4
:100EA0001EF400940E94650757FD07D00E942C078E
:100EB00007FC03D04EF40C9465075095409530958F
:100EC00021953F4F4F4F5F4F0895909580957095B6
:100ED00061957F4F8F4F9F4F0895EE0FFF1F059035
:100EE000F491E02D09940E948E07B7FF0895821BAC
:100EF000930B0895AA1BBB1B51E107C0AA1FBB1F80
:100F0000A617B70710F0A61BB70B881F991F5A9595
:100F1000A9F780959095BC01CD010895A29FB001DD
:100F2000B39FC001A39F700D811D1124911DB29F1D
:100F3000700D811D1124911D08950E94A4076894CD
:100F4000B1110C94330808950E94180888F09F5737
:100F500098F0B92F9927B751B0F0E1F0660F771FDD
:100F6000881F991F1AF0BA95C9F714C0B13091F0D3
:100F70000E943208B1E008950C943208672F782F50
:100F80008827B85F39F0B93FCCF386957795679598
:100F9000B395D9F73EF490958095709561957F4F04
:100FA0008F4F9F4F0895E89409C097FB3EF49095AA
:100FB0008095709561957F4F8F4F9F4F9923A9F032
:100FC000F92F96E9BB279395F695879577956795C1
:100FD000B795F111F8CFFAF4BB0F11F460FF1BC005
:100FE0006F5F7F4F8F4F9F4F16C0882311F096E998
:100FF00011C0772321F09EE8872F762F05C0662346
:1010000071F096E8862F70E060E02AF09A95660FFE
:10101000771F881FDAF7880F9695879597F90895B7
:1010200057FD9058440F551F59F05F3F71F0479599
:10103000880F97FB991F61F09F3F79F0879508957E
:10104000121613061406551FF2CF4695F1DF08C09D
:10105000161617061806991FF1CF869571056105BA
:1010600008940895E894BB2766277727CB0197F962
:1010700008950E944C080C94BD080E94AF0838F0F7
:101080000E94B60820F0952311F00C94A6080C9449
:10109000AC0811240C9433080E94100870F3959F3B
:1010A000C1F3950F50E0551F629FF001729FBB275F
:1010B000F00DB11D639FAA27F00DB11DAA1F649FFB
:1010C0006627B00DA11D661F829F2227B00DA11DAE
:1010D000621F739FB00DA11D621F839FA00D611D34
:1010E000221F749F3327A00D611D231F849F600D55
:1010F000211D822F762F6A2F11249F5750409AF07E
:10110000F1F088234AF0EE0FFF1FBB1F661F771F09
:10111000881F91505040A9F79E3F510580F00C94D4
:10112000A6080C9433085F3FE4F3983ED4F3869509
:1011300077956795B795F795E7959F5FC1F7FE2B74
:10114000880F911D9695879597F9089597F99F6750
:1011500080E870E060E008959FEF80EC089500243F
:101160000A941616170618060906089500240A940C
:1011700012161306140605060895092E0394000C92
:1011800011F4882352F0BB0F40F4BF2B11F460FF21
:1011900004C06F5F7F4F8F4F9F4F0895F894FFCF2C
:1011A000FF030A0000004A014A014A014A014A01BC
:1011B0004A014A018801060126014A015D015D01DB
:1011C0005D015D015D014A014A014A018801880112
:1011D0005D01260106010000080008000400080067
:1011E00008000400080008000800080004000800C7
:1011F00008000800080008000800080008000800AF
:10120000080008000800080001002E220E0C242807
:10121000142B102C2F3A0A26320906213E343307AC
:10122000350B3D2720031A232A16171201021C39F9
:10123000110430190D36081F0515293B37381E3F9C
:0A1240001B2D0F31131840253C1D33
:00000001FF
